{
    "_format": "hh-sol-artifact-1",
    "contractName": "RentalAuth",
    "sourceName": "contracts/RentalAuth.sol",
    "abi": [
        {
            "anonymous": false,
            "inputs": [
                {
                    "indexed": true,
                    "internalType": "address",
                    "name": "anonID",
                    "type": "address"
                }
            ],
            "name": "UserVerified",
            "type": "event"
        },
        {
            "inputs": [
                {
                    "internalType": "address",
                    "name": "anonID",
                    "type": "address"
                }
            ],
            "name": "isUserVerified",
            "outputs": [
                {
                    "internalType": "bool",
                    "name": "",
                    "type": "bool"
                }
            ],
            "stateMutability": "view",
            "type": "function"
        },
        {
            "inputs": [
                {
                    "internalType": "address",
                    "name": "",
                    "type": "address"
                }
            ],
            "name": "verifiedUsers",
            "outputs": [
                {
                    "internalType": "bool",
                    "name": "",
                    "type": "bool"
                }
            ],
            "stateMutability": "view",
            "type": "function"
        },
        {
            "inputs": [
                {
                    "internalType": "address",
                    "name": "anonID",
                    "type": "address"
                }
            ],
            "name": "verifyUser",
            "outputs": [],
            "stateMutability": "nonpayable",
            "type": "function"
        }
    ],
    "bytecode": "0x608060405234801561001057600080fd5b506103d9806100206000396000f3fe608060405234801561001057600080fd5b50600436106100415760003560e01c80634d81312014610046578063ace417e014610062578063e35fe36614610092575b600080fd5b610060600480360381019061005b91906102c3565b6100c2565b005b61007c600480360381019061007791906102c3565b6101eb565b604051610089919061030b565b60405180910390f35b6100ac60048036038101906100a791906102c3565b610240565b6040516100b9919061030b565b60405180910390f35b6000808273ffffffffffffffffffffffffffffffffffffffff1673ffffffffffffffffffffffffffffffffffffffff16815260200190815260200160002060009054906101000a900460ff161561014e576040517f08c379a000000000000000000000000000000000000000000000000000000000815260040161014590610383565b60405180910390fd5b60016000808373ffffffffffffffffffffffffffffffffffffffff1673ffffffffffffffffffffffffffffffffffffffff16815260200190815260200160002060006101000a81548160ff0219169083151502179055508073ffffffffffffffffffffffffffffffffffffffff167fa6625d2d26e786e2f473111bea4b2fcdbbf1863d883a2359989ce3a103d2972a60405160405180910390a250565b60008060008373ffffffffffffffffffffffffffffffffffffffff1673ffffffffffffffffffffffffffffffffffffffff16815260200190815260200160002060009054906101000a900460ff169050919050565b60006020528060005260406000206000915054906101000a900460ff1681565b600080fd5b600073ffffffffffffffffffffffffffffffffffffffff82169050919050565b600061029082610265565b9050919050565b6102a081610285565b81146102ab57600080fd5b50565b6000813590506102bd81610297565b92915050565b6000602082840312156102d9576102d8610260565b5b60006102e7848285016102ae565b91505092915050565b60008115159050919050565b610305816102f0565b82525050565b600060208201905061032060008301846102fc565b92915050565b600082825260208201905092915050565b7f5573657220616c72656164792072656769737465726564000000000000000000600082015250565b600061036d601783610326565b915061037882610337565b602082019050919050565b6000602082019050818103600083015261039c81610360565b905091905056fea264697066735822122021acc69fba92ce65329947f9b4698c008780380e8694a31954549b86e3506c1c64736f6c63430008140033",
    "linkReferences": {},
    "deployedLinkReferences": {}
}