{
  "_format": "hh-sol-artifact-1",
  "contractName": "RentalAgreement",
  "sourceName": "contracts/RentalAgreement.sol",
  "abi": [
    {
      "inputs": [
        {
          "internalType": "address",
          "name": "_tenant",
          "type": "address"
        },
        {
          "internalType": "uint256",
          "name": "_rentAmount",
          "type": "uint256"
        },
        {
          "internalType": "uint256",
          "name": "_securityDeposit",
          "type": "uint256"
        },
        {
          "internalType": "uint256",
          "name": "_dueDate",
          "type": "uint256"
        }
      ],
      "stateMutability": "nonpayable",
      "type": "constructor"
    },
    {
      "inputs": [],
      "name": "dueDate",
      "outputs": [
        {
          "internalType": "uint256",
          "name": "",
          "type": "uint256"
        }
      ],
      "stateMutability": "view",
      "type": "function"
    },
    {
      "inputs": [],
      "name": "isActive",
      "outputs": [
        {
          "internalType": "bool",
          "name": "",
          "type": "bool"
        }
      ],
      "stateMutability": "view",
      "type": "function"
    },
    {
      "inputs": [],
      "name": "landlord",
      "outputs": [
        {
          "internalType": "address",
          "name": "",
          "type": "address"
        }
      ],
      "stateMutability": "view",
      "type": "function"
    },
    {
      "inputs": [],
      "name": "payRent",
      "outputs": [],
      "stateMutability": "payable",
      "type": "function"
    },
    {
      "inputs": [],
      "name": "refundDeposit",
      "outputs": [],
      "stateMutability": "nonpayable",
      "type": "function"
    },
    {
      "inputs": [],
      "name": "rentAmount",
      "outputs": [
        {
          "internalType": "uint256",
          "name": "",
          "type": "uint256"
        }
      ],
      "stateMutability": "view",
      "type": "function"
    },
    {
      "inputs": [],
      "name": "securityDeposit",
      "outputs": [
        {
          "internalType": "uint256",
          "name": "",
          "type": "uint256"
        }
      ],
      "stateMutability": "view",
      "type": "function"
    },
    {
      "inputs": [],
      "name": "tenant",
      "outputs": [
        {
          "internalType": "address",
          "name": "",
          "type": "address"
        }
      ],
      "stateMutability": "view",
      "type": "function"
    },
    {
      "inputs": [],
      "name": "terminateAgreement",
      "outputs": [],
      "stateMutability": "nonpayable",
      "type": "function"
    }
  ],
  "bytecode": "0x60806040523480156200001157600080fd5b5060405162000bf538038062000bf5833981810160405281019062000037919062000197565b336000806101000a81548173ffffffffffffffffffffffffffffffffffffffff021916908373ffffffffffffffffffffffffffffffffffffffff16021790555083600160006101000a81548173ffffffffffffffffffffffffffffffffffffffff021916908373ffffffffffffffffffffffffffffffffffffffff1602179055508260028190555081600381905550806004819055506001600560006101000a81548160ff0219169083151502179055505050505062000209565b600080fd5b600073ffffffffffffffffffffffffffffffffffffffff82169050919050565b60006200012482620000f7565b9050919050565b620001368162000117565b81146200014257600080fd5b50565b60008151905062000156816200012b565b92915050565b6000819050919050565b62000171816200015c565b81146200017d57600080fd5b50565b600081519050620001918162000166565b92915050565b60008060008060808587031215620001b457620001b3620000f2565b5b6000620001c48782880162000145565b9450506020620001d78782880162000180565b9350506040620001ea8782880162000180565b9250506060620001fd8782880162000180565b91505092959194509250565b6109dc80620002196000396000f3fe6080604052600436106100865760003560e01c8063a709c4fe11610059578063a709c4fe14610123578063adf077911461012d578063dc1997ea14610158578063efc5eb8f14610183578063f8ef1e131461019a57610086565b8063220e5ab31461008b57806322f3e2d4146100b65780634200dd71146100e1578063786716fe146100f8575b600080fd5b34801561009757600080fd5b506100a06101c5565b6040516100ad9190610614565b60405180910390f35b3480156100c257600080fd5b506100cb6101cb565b6040516100d8919061064a565b60405180910390f35b3480156100ed57600080fd5b506100f66101de565b005b34801561010457600080fd5b5061010d610289565b60405161011a9190610614565b60405180910390f35b61012b61028f565b005b34801561013957600080fd5b50610142610460565b60405161014f91906106a6565b60405180910390f35b34801561016457600080fd5b5061016d610486565b60405161017a91906106a6565b60405180910390f35b34801561018f57600080fd5b506101986104aa565b005b3480156101a657600080fd5b506101af6105f5565b6040516101bc9190610614565b60405180910390f35b60035481565b600560009054906101000a900460ff1681565b60008054906101000a900473ffffffffffffffffffffffffffffffffffffffff1673ffffffffffffffffffffffffffffffffffffffff163373ffffffffffffffffffffffffffffffffffffffff161461026c576040517f08c379a000000000000000000000000000000000000000000000000000000000815260040161026390610744565b60405180910390fd5b6000600560006101000a81548160ff021916908315150217905550565b60045481565b600160009054906101000a900473ffffffffffffffffffffffffffffffffffffffff1673ffffffffffffffffffffffffffffffffffffffff163373ffffffffffffffffffffffffffffffffffffffff161461031f576040517f08c379a0000000000000000000000000000000000000000000000000000000008152600401610316906107d6565b60405180910390fd5b600560009054906101000a900460ff1661036e576040517f08c379a000000000000000000000000000000000000000000000000000000000815260040161036590610842565b60405180910390fd5b60025434146103b2576040517f08c379a00000000000000000000000000000000000000000000000000000000081526004016103a9906108ae565b60405180910390fd5b6004544211156103f7576040517f08c379a00000000000000000000000000000000000000000000000000000000081526004016103ee9061091a565b60405180910390fd5b60008054906101000a900473ffffffffffffffffffffffffffffffffffffffff1673ffffffffffffffffffffffffffffffffffffffff166108fc349081150290604051600060405180830381858888f1935050505015801561045d573d6000803e3d6000fd5b50565b600160009054906101000a900473ffffffffffffffffffffffffffffffffffffffff1681565b60008054906101000a900473ffffffffffffffffffffffffffffffffffffffff1681565b60008054906101000a900473ffffffffffffffffffffffffffffffffffffffff1673ffffffffffffffffffffffffffffffffffffffff163373ffffffffffffffffffffffffffffffffffffffff1614610538576040517f08c379a000000000000000000000000000000000000000000000000000000000815260040161052f90610744565b60405180910390fd5b600560009054906101000a900460ff1615610588576040517f08c379a000000000000000000000000000000000000000000000000000000000815260040161057f90610986565b60405180910390fd5b600160009054906101000a900473ffffffffffffffffffffffffffffffffffffffff1673ffffffffffffffffffffffffffffffffffffffff166108fc6003549081150290604051600060405180830381858888f193505050501580156105f2573d6000803e3d6000fd5b50565b60025481565b6000819050919050565b61060e816105fb565b82525050565b60006020820190506106296000830184610605565b92915050565b60008115159050919050565b6106448161062f565b82525050565b600060208201905061065f600083018461063b565b92915050565b600073ffffffffffffffffffffffffffffffffffffffff82169050919050565b600061069082610665565b9050919050565b6106a081610685565b82525050565b60006020820190506106bb6000830184610697565b92915050565b600082825260208201905092915050565b7f4f6e6c7920746865206c616e646c6f72642063616e2063616c6c20746869732060008201527f66756e6374696f6e2e0000000000000000000000000000000000000000000000602082015250565b600061072e6029836106c1565b9150610739826106d2565b604082019050919050565b6000602082019050818103600083015261075d81610721565b9050919050565b7f4f6e6c79207468652074656e616e742063616e2063616c6c207468697320667560008201527f6e6374696f6e2e00000000000000000000000000000000000000000000000000602082015250565b60006107c06027836106c1565b91506107cb82610764565b604082019050919050565b600060208201905081810360008301526107ef816107b3565b9050919050565b7f41677265656d656e74206973206e6f74206163746976652e0000000000000000600082015250565b600061082c6018836106c1565b9150610837826107f6565b602082019050919050565b6000602082019050818103600083015261085b8161081f565b9050919050565b7f496e636f72726563742072656e7420616d6f756e742e00000000000000000000600082015250565b60006108986016836106c1565b91506108a382610862565b602082019050919050565b600060208201905081810360008301526108c78161088b565b9050919050565b7f5061796d656e74206973206f7665726475652e00000000000000000000000000600082015250565b60006109046013836106c1565b915061090f826108ce565b602082019050919050565b60006020820190508181036000830152610933816108f7565b9050919050565b7f41677265656d656e74206973207374696c6c206163746976652e000000000000600082015250565b6000610970601a836106c1565b915061097b8261093a565b602082019050919050565b6000602082019050818103600083015261099f81610963565b905091905056fea2646970667358221220d80dfa83c63de37e5520221a8d3dd7f2383adf04a351fdb446236c38c1f2267c64736f6c63430008120033",
  "linkReferences": {},
  "deployedLinkReferences": {}
}