{
  "_format": "hh-sol-artifact-1",
  "contractName": "RentalAgreement",
  "sourceName": "contracts/RentalAgreement.sol",
  "abi": [
    {
      "inputs": [
        {
          "internalType": "address",
          "name": "_tenant",
          "type": "address"
        },
        {
          "internalType": "uint256",
          "name": "_rentAmount",
          "type": "uint256"
        },
        {
          "internalType": "uint256",
          "name": "_securityDeposit",
          "type": "uint256"
        },
        {
          "internalType": "uint256",
          "name": "_dueDate",
          "type": "uint256"
        }
      ],
      "stateMutability": "payable",
      "type": "constructor"
    },
    {
      "anonymous": false,
      "inputs": [
        {
          "indexed": true,
          "internalType": "address",
          "name": "tenant",
          "type": "address"
        },
        {
          "indexed": false,
          "internalType": "uint256",
          "name": "rentAmount",
          "type": "uint256"
        },
        {
          "indexed": false,
          "internalType": "uint256",
          "name": "securityDeposit",
          "type": "uint256"
        },
        {
          "indexed": false,
          "internalType": "uint256",
          "name": "dueDate",
          "type": "uint256"
        }
      ],
      "name": "AgreementSigned",
      "type": "event"
    },
    {
      "anonymous": false,
      "inputs": [
        {
          "indexed": true,
          "internalType": "address",
          "name": "tenant",
          "type": "address"
        }
      ],
      "name": "AgreementTerminated",
      "type": "event"
    },
    {
      "anonymous": false,
      "inputs": [
        {
          "indexed": true,
          "internalType": "address",
          "name": "tenant",
          "type": "address"
        },
        {
          "indexed": false,
          "internalType": "uint256",
          "name": "amount",
          "type": "uint256"
        }
      ],
      "name": "RentPaid",
      "type": "event"
    },
    {
      "inputs": [],
      "name": "dueDate",
      "outputs": [
        {
          "internalType": "uint256",
          "name": "",
          "type": "uint256"
        }
      ],
      "stateMutability": "view",
      "type": "function"
    },
    {
      "inputs": [],
      "name": "landlord",
      "outputs": [
        {
          "internalType": "address",
          "name": "",
          "type": "address"
        }
      ],
      "stateMutability": "view",
      "type": "function"
    },
    {
      "inputs": [],
      "name": "payRent",
      "outputs": [],
      "stateMutability": "payable",
      "type": "function"
    },
    {
      "inputs": [],
      "name": "rentAmount",
      "outputs": [
        {
          "internalType": "uint256",
          "name": "",
          "type": "uint256"
        }
      ],
      "stateMutability": "view",
      "type": "function"
    },
    {
      "inputs": [],
      "name": "securityDeposit",
      "outputs": [
        {
          "internalType": "uint256",
          "name": "",
          "type": "uint256"
        }
      ],
      "stateMutability": "view",
      "type": "function"
    },
    {
      "inputs": [],
      "name": "tenant",
      "outputs": [
        {
          "internalType": "address",
          "name": "",
          "type": "address"
        }
      ],
      "stateMutability": "view",
      "type": "function"
    },
    {
      "inputs": [],
      "name": "terminateAgreement",
      "outputs": [],
      "stateMutability": "nonpayable",
      "type": "function"
    }
  ],
  "bytecode": "0x608060405260405162000ac938038062000ac9833981810160405281019062000029919062000207565b8134146200006e576040517f08c379a00000000000000000000000000000000000000000000000000000000081526004016200006590620002da565b60405180910390fd5b336000806101000a81548173ffffffffffffffffffffffffffffffffffffffff021916908373ffffffffffffffffffffffffffffffffffffffff16021790555083600160006101000a81548173ffffffffffffffffffffffffffffffffffffffff021916908373ffffffffffffffffffffffffffffffffffffffff1602179055508260028190555081600381905550806004819055508373ffffffffffffffffffffffffffffffffffffffff167f3a5be36d770b1c11cda47ce89b27348d2b9478a799404c0502948457d59c36c284848460405162000150939291906200030d565b60405180910390a2505050506200034a565b600080fd5b600073ffffffffffffffffffffffffffffffffffffffff82169050919050565b6000620001948262000167565b9050919050565b620001a68162000187565b8114620001b257600080fd5b50565b600081519050620001c6816200019b565b92915050565b6000819050919050565b620001e181620001cc565b8114620001ed57600080fd5b50565b6000815190506200020181620001d6565b92915050565b6000806000806080858703121562000224576200022362000162565b5b60006200023487828801620001b5565b94505060206200024787828801620001f0565b93505060406200025a87828801620001f0565b92505060606200026d87828801620001f0565b91505092959194509250565b600082825260208201905092915050565b7f5365637572697479206465706f73697420726571756972656400000000000000600082015250565b6000620002c260198362000279565b9150620002cf826200028a565b602082019050919050565b60006020820190508181036000830152620002f581620002b3565b9050919050565b6200030781620001cc565b82525050565b6000606082019050620003246000830186620002fc565b620003336020830185620002fc565b620003426040830184620002fc565b949350505050565b61076f806200035a6000396000f3fe6080604052600436106100705760003560e01c8063a709c4fe1161004e578063a709c4fe146100e2578063adf07791146100ec578063dc1997ea14610117578063f8ef1e131461014257610070565b8063220e5ab3146100755780634200dd71146100a0578063786716fe146100b7575b600080fd5b34801561008157600080fd5b5061008a61016d565b6040516100979190610547565b60405180910390f35b3480156100ac57600080fd5b506100b5610173565b005b3480156100c357600080fd5b506100cc61032b565b6040516100d99190610547565b60405180910390f35b6100ea610331565b005b3480156100f857600080fd5b506101016104de565b60405161010e91906105a3565b60405180910390f35b34801561012357600080fd5b5061012c610504565b60405161013991906105a3565b60405180910390f35b34801561014e57600080fd5b50610157610528565b6040516101649190610547565b60405180910390f35b60035481565b60008054906101000a900473ffffffffffffffffffffffffffffffffffffffff1673ffffffffffffffffffffffffffffffffffffffff163373ffffffffffffffffffffffffffffffffffffffff16148061021a5750600160009054906101000a900473ffffffffffffffffffffffffffffffffffffffff1673ffffffffffffffffffffffffffffffffffffffff163373ffffffffffffffffffffffffffffffffffffffff16145b610259576040517f08c379a000000000000000000000000000000000000000000000000000000000815260040161025090610641565b60405180910390fd5b600160009054906101000a900473ffffffffffffffffffffffffffffffffffffffff1673ffffffffffffffffffffffffffffffffffffffff166108fc6003549081150290604051600060405180830381858888f193505050501580156102c3573d6000803e3d6000fd5b50600160009054906101000a900473ffffffffffffffffffffffffffffffffffffffff1673ffffffffffffffffffffffffffffffffffffffff167f0cb7f2c80cbc4263079ffcaa0cdbf888607cbdce2c24ff4e4da6b62cbb7e39c260405160405180910390a2565b60045481565b600160009054906101000a900473ffffffffffffffffffffffffffffffffffffffff1673ffffffffffffffffffffffffffffffffffffffff163373ffffffffffffffffffffffffffffffffffffffff16146103c1576040517f08c379a00000000000000000000000000000000000000000000000000000000081526004016103b8906106ad565b60405180910390fd5b6002543414610405576040517f08c379a00000000000000000000000000000000000000000000000000000000081526004016103fc90610719565b60405180910390fd5b60008054906101000a900473ffffffffffffffffffffffffffffffffffffffff1673ffffffffffffffffffffffffffffffffffffffff166108fc349081150290604051600060405180830381858888f1935050505015801561046b573d6000803e3d6000fd5b50600160009054906101000a900473ffffffffffffffffffffffffffffffffffffffff1673ffffffffffffffffffffffffffffffffffffffff167f03b5033869479e8a98af42b272f05933f60489fe9fb43d63e11a6c31f3fa7474346040516104d49190610547565b60405180910390a2565b600160009054906101000a900473ffffffffffffffffffffffffffffffffffffffff1681565b60008054906101000a900473ffffffffffffffffffffffffffffffffffffffff1681565b60025481565b6000819050919050565b6105418161052e565b82525050565b600060208201905061055c6000830184610538565b92915050565b600073ffffffffffffffffffffffffffffffffffffffff82169050919050565b600061058d82610562565b9050919050565b61059d81610582565b82525050565b60006020820190506105b86000830184610594565b92915050565b600082825260208201905092915050565b7f4f6e6c79206c616e646c6f7264206f722074656e616e742063616e207465726d60008201527f696e617465000000000000000000000000000000000000000000000000000000602082015250565b600061062b6025836105be565b9150610636826105cf565b604082019050919050565b6000602082019050818103600083015261065a8161061e565b9050919050565b7f4f6e6c792074656e616e742063616e207061792072656e740000000000000000600082015250565b60006106976018836105be565b91506106a282610661565b602082019050919050565b600060208201905081810360008301526106c68161068a565b9050919050565b7f496e636f72726563742072656e7420616d6f756e740000000000000000000000600082015250565b60006107036015836105be565b915061070e826106cd565b602082019050919050565b60006020820190508181036000830152610732816106f6565b905091905056fea264697066735822122086f138ffab7fdb5583c0bbe27e2918564bc6abbbc0d4ecef46a5da74bd6bff3a64736f6c63430008140033",
  "linkReferences": {},
  "deployedLinkReferences": {}
}