{
  "_format": "hh-sol-artifact-1",
  "contractName": "TorRent",
  "sourceName": "contracts/TorRent.sol",
  "abi": [
    {
      "anonymous": false,
      "inputs": [
        {
          "indexed": true,
          "internalType": "uint256",
          "name": "agreementId",
          "type": "uint256"
        },
        {
          "indexed": true,
          "internalType": "address",
          "name": "landlord",
          "type": "address"
        },
        {
          "indexed": true,
          "internalType": "address",
          "name": "tenant",
          "type": "address"
        },
        {
          "indexed": false,
          "internalType": "uint256",
          "name": "rent",
          "type": "uint256"
        },
        {
          "indexed": false,
          "internalType": "uint256",
          "name": "deposit",
          "type": "uint256"
        },
        {
          "indexed": false,
          "internalType": "uint256",
          "name": "startDate",
          "type": "uint256"
        },
        {
          "indexed": false,
          "internalType": "uint256",
          "name": "endDate",
          "type": "uint256"
        }
      ],
      "name": "AgreementCreated",
      "type": "event"
    },
    {
      "anonymous": false,
      "inputs": [
        {
          "indexed": true,
          "internalType": "uint256",
          "name": "agreementId",
          "type": "uint256"
        },
        {
          "indexed": true,
          "internalType": "address",
          "name": "tenant",
          "type": "address"
        },
        {
          "indexed": false,
          "internalType": "uint256",
          "name": "amount",
          "type": "uint256"
        }
      ],
      "name": "DepositRefunded",
      "type": "event"
    },
    {
      "anonymous": false,
      "inputs": [
        {
          "indexed": true,
          "internalType": "uint256",
          "name": "agreementId",
          "type": "uint256"
        },
        {
          "indexed": true,
          "internalType": "address",
          "name": "by",
          "type": "address"
        },
        {
          "indexed": false,
          "internalType": "string",
          "name": "reason",
          "type": "string"
        }
      ],
      "name": "DisputeRaised",
      "type": "event"
    },
    {
      "anonymous": false,
      "inputs": [
        {
          "indexed": true,
          "internalType": "uint256",
          "name": "agreementId",
          "type": "uint256"
        },
        {
          "indexed": false,
          "internalType": "string",
          "name": "resolution",
          "type": "string"
        }
      ],
      "name": "DisputeResolved",
      "type": "event"
    },
    {
      "anonymous": false,
      "inputs": [
        {
          "indexed": true,
          "internalType": "uint256",
          "name": "agreementId",
          "type": "uint256"
        },
        {
          "indexed": true,
          "internalType": "address",
          "name": "tenant",
          "type": "address"
        },
        {
          "indexed": false,
          "internalType": "uint256",
          "name": "amount",
          "type": "uint256"
        }
      ],
      "name": "RentPaid",
      "type": "event"
    },
    {
      "inputs": [],
      "name": "agreementCount",
      "outputs": [
        {
          "internalType": "uint256",
          "name": "",
          "type": "uint256"
        }
      ],
      "stateMutability": "view",
      "type": "function"
    },
    {
      "inputs": [
        {
          "internalType": "uint256",
          "name": "",
          "type": "uint256"
        }
      ],
      "name": "agreements",
      "outputs": [
        {
          "internalType": "address",
          "name": "landlord",
          "type": "address"
        },
        {
          "internalType": "address",
          "name": "tenant",
          "type": "address"
        },
        {
          "internalType": "uint256",
          "name": "rent",
          "type": "uint256"
        },
        {
          "internalType": "uint256",
          "name": "deposit",
          "type": "uint256"
        },
        {
          "internalType": "uint256",
          "name": "startDate",
          "type": "uint256"
        },
        {
          "internalType": "uint256",
          "name": "endDate",
          "type": "uint256"
        },
        {
          "internalType": "bool",
          "name": "isActive",
          "type": "bool"
        }
      ],
      "stateMutability": "view",
      "type": "function"
    },
    {
      "inputs": [
        {
          "internalType": "address",
          "name": "tenant",
          "type": "address"
        },
        {
          "internalType": "uint256",
          "name": "rent",
          "type": "uint256"
        },
        {
          "internalType": "uint256",
          "name": "deposit",
          "type": "uint256"
        },
        {
          "internalType": "uint256",
          "name": "startDate",
          "type": "uint256"
        },
        {
          "internalType": "uint256",
          "name": "endDate",
          "type": "uint256"
        }
      ],
      "name": "createAgreement",
      "outputs": [],
      "stateMutability": "payable",
      "type": "function"
    },
    {
      "inputs": [
        {
          "internalType": "uint256",
          "name": "",
          "type": "uint256"
        }
      ],
      "name": "disputes",
      "outputs": [
        {
          "internalType": "string",
          "name": "",
          "type": "string"
        }
      ],
      "stateMutability": "view",
      "type": "function"
    },
    {
      "inputs": [
        {
          "internalType": "uint256",
          "name": "agreementId",
          "type": "uint256"
        }
      ],
      "name": "endAgreement",
      "outputs": [],
      "stateMutability": "nonpayable",
      "type": "function"
    },
    {
      "inputs": [
        {
          "internalType": "uint256",
          "name": "agreementId",
          "type": "uint256"
        }
      ],
      "name": "payRent",
      "outputs": [],
      "stateMutability": "payable",
      "type": "function"
    },
    {
      "inputs": [
        {
          "internalType": "uint256",
          "name": "agreementId",
          "type": "uint256"
        },
        {
          "internalType": "string",
          "name": "reason",
          "type": "string"
        }
      ],
      "name": "raiseDispute",
      "outputs": [],
      "stateMutability": "nonpayable",
      "type": "function"
    },
    {
      "inputs": [
        {
          "internalType": "uint256",
          "name": "agreementId",
          "type": "uint256"
        },
        {
          "internalType": "string",
          "name": "resolution",
          "type": "string"
        }
      ],
      "name": "resolveDispute",
      "outputs": [],
      "stateMutability": "nonpayable",
      "type": "function"
    }
  ],
  "bytecode": "0x608060405234801561001057600080fd5b506116e4806100206000396000f3fe60806040526004361061007b5760003560e01c8063bb7bb2781161004e578063bb7bb2781461012b578063bd14de9614610156578063cf51b45d14610199578063d9e8843f146101c25761007b565b806304a03ca714610080578063564a565d1461009c5780635aef573c146100d9578063a2762bc214610102575b600080fd5b61009a60048036038101906100959190610c4c565b6101de565b005b3480156100a857600080fd5b506100c360048036038101906100be9190610cc7565b61043e565b6040516100d09190610d84565b60405180910390f35b3480156100e557600080fd5b5061010060048036038101906100fb9190610edb565b6104de565b005b34801561010e57600080fd5b5061012960048036038101906101249190610cc7565b6106a6565b005b34801561013757600080fd5b506101406108a6565b60405161014d9190610f46565b60405180910390f35b34801561016257600080fd5b5061017d60048036038101906101789190610cc7565b6108ac565b6040516101909796959493929190610f8b565b60405180910390f35b3480156101a557600080fd5b506101c060048036038101906101bb9190610edb565b61093b565b005b6101dc60048036038101906101d79190610cc7565b6109a7565b005b823414610220576040517f08c379a000000000000000000000000000000000000000000000000000000000815260040161021790611046565b60405180910390fd5b808210610262576040517f08c379a0000000000000000000000000000000000000000000000000000000008152600401610259906110b2565b60405180910390fd5b6001600081548092919061027590611101565b91905055506040518060e001604052803373ffffffffffffffffffffffffffffffffffffffff1681526020018673ffffffffffffffffffffffffffffffffffffffff16815260200185815260200184815260200183815260200182815260200160011515815250600080600154815260200190815260200160002060008201518160000160006101000a81548173ffffffffffffffffffffffffffffffffffffffff021916908373ffffffffffffffffffffffffffffffffffffffff16021790555060208201518160010160006101000a81548173ffffffffffffffffffffffffffffffffffffffff021916908373ffffffffffffffffffffffffffffffffffffffff16021790555060408201518160020155606082015181600301556080820151816004015560a0820151816005015560c08201518160060160006101000a81548160ff0219169083151502179055509050508473ffffffffffffffffffffffffffffffffffffffff163373ffffffffffffffffffffffffffffffffffffffff166001547f87002208ecf3701e20e3abfb16deb23ab985227e81bc6f17f4d03697d0e0416d8787878760405161042f9493929190611149565b60405180910390a45050505050565b6002602052806000526040600020600091509050805461045d906111bd565b80601f0160208091040260200160405190810160405280929190818152602001828054610489906111bd565b80156104d65780601f106104ab576101008083540402835291602001916104d6565b820191906000526020600020905b8154815290600101906020018083116104b957829003601f168201915b505050505081565b600080600084815260200190815260200160002090508060000160009054906101000a900473ffffffffffffffffffffffffffffffffffffffff1673ffffffffffffffffffffffffffffffffffffffff163373ffffffffffffffffffffffffffffffffffffffff1614806105a157508060010160009054906101000a900473ffffffffffffffffffffffffffffffffffffffff1673ffffffffffffffffffffffffffffffffffffffff163373ffffffffffffffffffffffffffffffffffffffff16145b6105e0576040517f08c379a00000000000000000000000000000000000000000000000000000000081526004016105d79061123a565b60405180910390fd5b8060060160009054906101000a900460ff16610631576040517f08c379a0000000000000000000000000000000000000000000000000000000008152600401610628906112a6565b60405180910390fd5b816002600085815260200190815260200160002090816106519190611472565b503373ffffffffffffffffffffffffffffffffffffffff16837f1b84372106d77c6daea0dda35bbc0229d10a83f58ec899092884925193682341846040516106999190610d84565b60405180910390a3505050565b600080600083815260200190815260200160002090508060000160009054906101000a900473ffffffffffffffffffffffffffffffffffffffff1673ffffffffffffffffffffffffffffffffffffffff163373ffffffffffffffffffffffffffffffffffffffff161461074e576040517f08c379a0000000000000000000000000000000000000000000000000000000008152600401610745906115b6565b60405180910390fd5b8060060160009054906101000a900460ff1661079f576040517f08c379a0000000000000000000000000000000000000000000000000000000008152600401610796906112a6565b60405180910390fd5b60008160060160006101000a81548160ff0219169083151502179055508060010160009054906101000a900473ffffffffffffffffffffffffffffffffffffffff1673ffffffffffffffffffffffffffffffffffffffff166108fc82600301549081150290604051600060405180830381858888f1935050505015801561082a573d6000803e3d6000fd5b508060010160009054906101000a900473ffffffffffffffffffffffffffffffffffffffff1673ffffffffffffffffffffffffffffffffffffffff16827f69187e59ebb7ab44cba5434886e4e6cde1412568f3483279dc99de772cb25405836003015460405161089a9190610f46565b60405180910390a35050565b60015481565b60006020528060005260406000206000915090508060000160009054906101000a900473ffffffffffffffffffffffffffffffffffffffff16908060010160009054906101000a900473ffffffffffffffffffffffffffffffffffffffff16908060020154908060030154908060040154908060050154908060060160009054906101000a900460ff16905087565b6040518060200160405280600081525060026000848152602001908152602001600020908161096a9190611472565b50817f831764ac02a33c193cba23a0de34c986e9b50402bf3c9febf6ff2f63d4c0435d8260405161099b9190610d84565b60405180910390a25050565b600080600083815260200190815260200160002090508060010160009054906101000a900473ffffffffffffffffffffffffffffffffffffffff1673ffffffffffffffffffffffffffffffffffffffff163373ffffffffffffffffffffffffffffffffffffffff1614610a4f576040517f08c379a0000000000000000000000000000000000000000000000000000000008152600401610a4690611622565b60405180910390fd5b8060060160009054906101000a900460ff16610aa0576040517f08c379a0000000000000000000000000000000000000000000000000000000008152600401610a97906112a6565b60405180910390fd5b80600201543414610ae6576040517f08c379a0000000000000000000000000000000000000000000000000000000008152600401610add9061168e565b60405180910390fd5b8060000160009054906101000a900473ffffffffffffffffffffffffffffffffffffffff1673ffffffffffffffffffffffffffffffffffffffff166108fc349081150290604051600060405180830381858888f19350505050158015610b50573d6000803e3d6000fd5b503373ffffffffffffffffffffffffffffffffffffffff16827f63e55317e25c0cab3a2de23ee0e244496daea0c1c2b8e272bbc01722b96bb9ae34604051610b989190610f46565b60405180910390a35050565b6000604051905090565b600080fd5b600080fd5b600073ffffffffffffffffffffffffffffffffffffffff82169050919050565b6000610be382610bb8565b9050919050565b610bf381610bd8565b8114610bfe57600080fd5b50565b600081359050610c1081610bea565b92915050565b6000819050919050565b610c2981610c16565b8114610c3457600080fd5b50565b600081359050610c4681610c20565b92915050565b600080600080600060a08688031215610c6857610c67610bae565b5b6000610c7688828901610c01565b9550506020610c8788828901610c37565b9450506040610c9888828901610c37565b9350506060610ca988828901610c37565b9250506080610cba88828901610c37565b9150509295509295909350565b600060208284031215610cdd57610cdc610bae565b5b6000610ceb84828501610c37565b91505092915050565b600081519050919050565b600082825260208201905092915050565b60005b83811015610d2e578082015181840152602081019050610d13565b60008484015250505050565b6000601f19601f8301169050919050565b6000610d5682610cf4565b610d608185610cff565b9350610d70818560208601610d10565b610d7981610d3a565b840191505092915050565b60006020820190508181036000830152610d9e8184610d4b565b905092915050565b600080fd5b600080fd5b7f4e487b7100000000000000000000000000000000000000000000000000000000600052604160045260246000fd5b610de882610d3a565b810181811067ffffffffffffffff82111715610e0757610e06610db0565b5b80604052505050565b6000610e1a610ba4565b9050610e268282610ddf565b919050565b600067ffffffffffffffff821115610e4657610e45610db0565b5b610e4f82610d3a565b9050602081019050919050565b82818337600083830152505050565b6000610e7e610e7984610e2b565b610e10565b905082815260208101848484011115610e9a57610e99610dab565b5b610ea5848285610e5c565b509392505050565b600082601f830112610ec257610ec1610da6565b5b8135610ed2848260208601610e6b565b91505092915050565b60008060408385031215610ef257610ef1610bae565b5b6000610f0085828601610c37565b925050602083013567ffffffffffffffff811115610f2157610f20610bb3565b5b610f2d85828601610ead565b9150509250929050565b610f4081610c16565b82525050565b6000602082019050610f5b6000830184610f37565b92915050565b610f6a81610bd8565b82525050565b60008115159050919050565b610f8581610f70565b82525050565b600060e082019050610fa0600083018a610f61565b610fad6020830189610f61565b610fba6040830188610f37565b610fc76060830187610f37565b610fd46080830186610f37565b610fe160a0830185610f37565b610fee60c0830184610f7c565b98975050505050505050565b7f4465706f73697420616d6f756e74206d69736d61746368000000000000000000600082015250565b6000611030601783610cff565b915061103b82610ffa565b602082019050919050565b6000602082019050818103600083015261105f81611023565b9050919050565b7f496e76616c696420646174657300000000000000000000000000000000000000600082015250565b600061109c600d83610cff565b91506110a782611066565b602082019050919050565b600060208201905081810360008301526110cb8161108f565b9050919050565b7f4e487b7100000000000000000000000000000000000000000000000000000000600052601160045260246000fd5b600061110c82610c16565b91507fffffffffffffffffffffffffffffffffffffffffffffffffffffffffffffffff820361113e5761113d6110d2565b5b600182019050919050565b600060808201905061115e6000830187610f37565b61116b6020830186610f37565b6111786040830185610f37565b6111856060830184610f37565b95945050505050565b7f4e487b7100000000000000000000000000000000000000000000000000000000600052602260045260246000fd5b600060028204905060018216806111d557607f821691505b6020821081036111e8576111e761118e565b5b50919050565b7f4e6f7420617574686f72697a6564000000000000000000000000000000000000600082015250565b6000611224600e83610cff565b915061122f826111ee565b602082019050919050565b6000602082019050818103600083015261125381611217565b9050919050565b7f41677265656d656e74206973206e6f7420616374697665000000000000000000600082015250565b6000611290601783610cff565b915061129b8261125a565b602082019050919050565b600060208201905081810360008301526112bf81611283565b9050919050565b60008190508160005260206000209050919050565b60006020601f8301049050919050565b600082821b905092915050565b6000600883026113287fffffffffffffffffffffffffffffffffffffffffffffffffffffffffffffffff826112eb565b61133286836112eb565b95508019841693508086168417925050509392505050565b6000819050919050565b600061136f61136a61136584610c16565b61134a565b610c16565b9050919050565b6000819050919050565b61138983611354565b61139d61139582611376565b8484546112f8565b825550505050565b600090565b6113b26113a5565b6113bd818484611380565b505050565b5b818110156113e1576113d66000826113aa565b6001810190506113c3565b5050565b601f821115611426576113f7816112c6565b611400846112db565b8101602085101561140f578190505b61142361141b856112db565b8301826113c2565b50505b505050565b600082821c905092915050565b60006114496000198460080261142b565b1980831691505092915050565b60006114628383611438565b9150826002028217905092915050565b61147b82610cf4565b67ffffffffffffffff81111561149457611493610db0565b5b61149e82546111bd565b6114a98282856113e5565b600060209050601f8311600181146114dc57600084156114ca578287015190505b6114d48582611456565b86555061153c565b601f1984166114ea866112c6565b60005b82811015611512578489015182556001820191506020850194506020810190506114ed565b8683101561152f578489015161152b601f891682611438565b8355505b6001600288020188555050505b505050505050565b7f4f6e6c7920746865206c616e646c6f72642063616e20656e642074686520616760008201527f7265656d656e7400000000000000000000000000000000000000000000000000602082015250565b60006115a0602783610cff565b91506115ab82611544565b604082019050919050565b600060208201905081810360008301526115cf81611593565b9050919050565b7f4f6e6c79207468652074656e616e742063616e207061792072656e7400000000600082015250565b600061160c601c83610cff565b9150611617826115d6565b602082019050919050565b6000602082019050818103600083015261163b816115ff565b9050919050565b7f496e636f72726563742072656e7420616d6f756e740000000000000000000000600082015250565b6000611678601583610cff565b915061168382611642565b602082019050919050565b600060208201905081810360008301526116a78161166b565b905091905056fea26469706673582212200f14df0dab2330880cc2571067062fdb8a3690019e58a2261c60984eb19894b264736f6c63430008120033",
  "linkReferences": {},
  "deployedLinkReferences": {}
}