{
  "_format": "hh-sol-artifact-1",
  "contractName": "RentalAuth",
  "sourceName": "contracts/RentalAuth.sol",
  "abi": [
    {
      "anonymous": false,
      "inputs": [
        {
          "indexed": true,
          "internalType": "address",
          "name": "anonID",
          "type": "address"
        }
      ],
      "name": "UserVerified",
      "type": "event"
    },
    {
      "inputs": [
        {
          "internalType": "string",
          "name": "aadhaarHash",
          "type": "string"
        }
      ],
      "name": "getAnonymousID",
      "outputs": [
        {
          "internalType": "address",
          "name": "",
          "type": "address"
        }
      ],
      "stateMutability": "view",
      "type": "function"
    },
    {
      "inputs": [
        {
          "internalType": "address",
          "name": "anonID",
          "type": "address"
        }
      ],
      "name": "isUserVerified",
      "outputs": [
        {
          "internalType": "bool",
          "name": "",
          "type": "bool"
        }
      ],
      "stateMutability": "view",
      "type": "function"
    },
    {
      "inputs": [
        {
          "internalType": "string",
          "name": "aadhaarHash",
          "type": "string"
        },
        {
          "internalType": "address",
          "name": "anonID",
          "type": "address"
        }
      ],
      "name": "registerAadhaar",
      "outputs": [],
      "stateMutability": "nonpayable",
      "type": "function"
    },
    {
      "inputs": [
        {
          "internalType": "address",
          "name": "",
          "type": "address"
        }
      ],
      "name": "verifiedUsers",
      "outputs": [
        {
          "internalType": "bool",
          "name": "",
          "type": "bool"
        }
      ],
      "stateMutability": "view",
      "type": "function"
    },
    {
      "inputs": [
        {
          "internalType": "address",
          "name": "anonID",
          "type": "address"
        }
      ],
      "name": "verifyUser",
      "outputs": [],
      "stateMutability": "nonpayable",
      "type": "function"
    }
  ],
  "bytecode": "0x608060405234801561001057600080fd5b50610a3b806100206000396000f3fe608060405234801561001057600080fd5b50600436106100575760003560e01c80634d8131201461005c578063ace417e014610078578063d695754d146100a8578063e35fe366146100c4578063e3e736a1146100f4575b600080fd5b610076600480360381019061007191906105b0565b610124565b005b610092600480360381019061008d91906105b0565b61024d565b60405161009f91906105f8565b60405180910390f35b6100c260048036038101906100bd9190610759565b6102a2565b005b6100de60048036038101906100d991906105b0565b6104d6565b6040516100eb91906105f8565b60405180910390f35b61010e600480360381019061010991906107b5565b6104f6565b60405161011b919061080d565b60405180910390f35b6000808273ffffffffffffffffffffffffffffffffffffffff1673ffffffffffffffffffffffffffffffffffffffff16815260200190815260200160002060009054906101000a900460ff16156101b0576040517f08c379a00000000000000000000000000000000000000000000000000000000081526004016101a790610885565b60405180910390fd5b60016000808373ffffffffffffffffffffffffffffffffffffffff1673ffffffffffffffffffffffffffffffffffffffff16815260200190815260200160002060006101000a81548160ff0219169083151502179055508073ffffffffffffffffffffffffffffffffffffffff167fa6625d2d26e786e2f473111bea4b2fcdbbf1863d883a2359989ce3a103d2972a60405160405180910390a250565b60008060008373ffffffffffffffffffffffffffffffffffffffff1673ffffffffffffffffffffffffffffffffffffffff16815260200190815260200160002060009054906101000a900460ff169050919050565b6000808273ffffffffffffffffffffffffffffffffffffffff1673ffffffffffffffffffffffffffffffffffffffff16815260200190815260200160002060009054906101000a900460ff161561032e576040517f08c379a0000000000000000000000000000000000000000000000000000000008152600401610325906108f1565b60405180910390fd5b600073ffffffffffffffffffffffffffffffffffffffff166001836040516103569190610982565b908152602001604051809103902060009054906101000a900473ffffffffffffffffffffffffffffffffffffffff1673ffffffffffffffffffffffffffffffffffffffff16146103db576040517f08c379a00000000000000000000000000000000000000000000000000000000081526004016103d2906109e5565b60405180910390fd5b806001836040516103ec9190610982565b908152602001604051809103902060006101000a81548173ffffffffffffffffffffffffffffffffffffffff021916908373ffffffffffffffffffffffffffffffffffffffff16021790555060016000808373ffffffffffffffffffffffffffffffffffffffff1673ffffffffffffffffffffffffffffffffffffffff16815260200190815260200160002060006101000a81548160ff0219169083151502179055508073ffffffffffffffffffffffffffffffffffffffff167fa6625d2d26e786e2f473111bea4b2fcdbbf1863d883a2359989ce3a103d2972a60405160405180910390a25050565b60006020528060005260406000206000915054906101000a900460ff1681565b60006001826040516105089190610982565b908152602001604051809103902060009054906101000a900473ffffffffffffffffffffffffffffffffffffffff169050919050565b6000604051905090565b600080fd5b600080fd5b600073ffffffffffffffffffffffffffffffffffffffff82169050919050565b600061057d82610552565b9050919050565b61058d81610572565b811461059857600080fd5b50565b6000813590506105aa81610584565b92915050565b6000602082840312156105c6576105c5610548565b5b60006105d48482850161059b565b91505092915050565b60008115159050919050565b6105f2816105dd565b82525050565b600060208201905061060d60008301846105e9565b92915050565b600080fd5b600080fd5b6000601f19601f8301169050919050565b7f4e487b7100000000000000000000000000000000000000000000000000000000600052604160045260246000fd5b6106668261061d565b810181811067ffffffffffffffff821117156106855761068461062e565b5b80604052505050565b600061069861053e565b90506106a4828261065d565b919050565b600067ffffffffffffffff8211156106c4576106c361062e565b5b6106cd8261061d565b9050602081019050919050565b82818337600083830152505050565b60006106fc6106f7846106a9565b61068e565b90508281526020810184848401111561071857610717610618565b5b6107238482856106da565b509392505050565b600082601f8301126107405761073f610613565b5b81356107508482602086016106e9565b91505092915050565b600080604083850312156107705761076f610548565b5b600083013567ffffffffffffffff81111561078e5761078d61054d565b5b61079a8582860161072b565b92505060206107ab8582860161059b565b9150509250929050565b6000602082840312156107cb576107ca610548565b5b600082013567ffffffffffffffff8111156107e9576107e861054d565b5b6107f58482850161072b565b91505092915050565b61080781610572565b82525050565b600060208201905061082260008301846107fe565b92915050565b600082825260208201905092915050565b7f5573657220616c72656164792076657269666965640000000000000000000000600082015250565b600061086f601583610828565b915061087a82610839565b602082019050919050565b6000602082019050818103600083015261089e81610862565b9050919050565b7f416e6f6e796d6f757320494420616c7265616479207265676973746572656400600082015250565b60006108db601f83610828565b91506108e6826108a5565b602082019050919050565b6000602082019050818103600083015261090a816108ce565b9050919050565b600081519050919050565b600081905092915050565b60005b8381101561094557808201518184015260208101905061092a565b60008484015250505050565b600061095c82610911565b610966818561091c565b9350610976818560208601610927565b80840191505092915050565b600061098e8284610951565b915081905092915050565b7f4161646861617220616c72656164792072656769737465726564000000000000600082015250565b60006109cf601a83610828565b91506109da82610999565b602082019050919050565b600060208201905081810360008301526109fe816109c2565b905091905056fea264697066735822122041cf111c0cee272774d86fed5cd9c98537385a58cd3e3a6247c4e32ae7265f7664736f6c63430008140033",
  "linkReferences": {},
  "deployedLinkReferences": {}
}